:100000000C94610D0C9439170C9498660C94800D27
:100010000C94800D0C94800D0C94800D0C94800D2C
:100020000C94800D0C943F100C94800D0C94800D5A
:100030000C94800D0C94800D0C94800D0C94800D0C
:100040000C94800D0C94800D0C94800D0C94800DFC
:100050000C944D690C94800D0C9441690C94800DA6
:100060000C94800D0C94800D0C94800D0C94800DDC
:100070000C948B690C94800D0C947F690C94800D0A
:100080000C94EB6A0C94800D0C94800D25732573F1
:100090000A002E2573206F6E6C696E652077697477
:1000A000682066697865642025752062797465200A
:1000B00077656220636F6E74656E740A00495076CE
:1000C0003620416464726573733A2025730A000A0E
:1000D000002C20636865636B207261746520257550
:1000E00020487A0025732025732C206368616E6E8A
:1000F000656C202575004D41432061646472657311
:10010000732025783A25783A25783A25783A257863
:100110003A25783A25783A25780A000A2A2A2A2A9E
:100120002A2A2A426F6F74696E672025732A2A2A49
:100130002A2A2A2A0A00485454502F312E302000EF
:100140000D0A5365727665723A20436F6E74696B5F
:10015000692F322E3020687474703A2F2F7777779A
:100160002E736963732E73652F636F6E74696B6989
:100170002F0D0A436F6E6E656374696F6E3A20636C
:100180006C6F73650D0A00436F6E74656E742D7429
:100190007970653A20000D0A0D0A00746578742F95
:1001A00068746D6C00746578742F63737300746584
:1001B00078742F68746D6C00746578742F63737332
:1001C00000696D6167652F706E6700696D616765B5
:1001D0002F67696600696D6167652F6A70656700E2
:1001E000746578742F706C61696E006170706C69F1
:1001F000636174696F6E2F6F637465742D737472AD
:1002000065616D006A7067002E7368746D6C002FF5
:10021000696E6465782E68746D6C002F3430342EEE
:1002200068746D6C00343034204E6F7420666F75C6
:100230006E6400323030204F4B004745542000524E
:100240006566657265723A00504F53542000636FC3
:100250006E6669672E7368746D6C2000736F636BD4
:1002600065745F737461742E7368746D6C20002FF5
:100270007374796C652E6373730068317B74657871
:10028000742D616C69676E3A63656E7465723B6666
:100290006F6E742D73697A653A313470743B666F92
:1002A0006E742D66616D696C793A617269616C2C4E
:1002B00068656C7665746963613B666F6E742D77F3
:1002C00065696768743A626F6C643B706164646905
:1002D0006E673A313070783B7D0D0A626F64797BCE
:1002E0006261636B67726F756E642D636F6C6F72A2
:1002F0003A236665666566653B636F6C6F723A624A
:100300006C61636B3B666F6E742D73697A653A3806
:1003100070743B666F6E742D66616D696C793A61BD
:100320007269616C2C68656C7665746963613B7D8C
:100330000D0A2E777261707B77696474683A393878
:10034000253B6D617267696E3A30206175746F3B51
:10035000746578742D616C69676E3A6C6566743B80
:10036000666F6E742D66616D696C793A6172696150
:100370006C2C68656C7665746963613B7D0D0A2E33
:100380006D656E75626C6F636B7B6D617267696EB4
:100390003A3470783B77696474683A3135253B6646
:1003A0006C6F61743A6C6566743B70616464696E0D
:1003B000673A313070783B626F726465723A736F7E
:1003C0006C6964203170783B6261636B67726F7532
:1003D0006E642D636F6C6F723A23464646464646FE
:1003E0003B746578742D616C69676E3A6C656674F0
:1003F0003B666F6E742D73697A653A313170743B68
:10040000666F6E742D66616D696C793A61726961AF
:100410006C2C68656C7665746963613B7D0D0A2E92
:10042000636F6E74656E74626C6F636B7B6D61720B
:1004300067696E3A3470783B77696474683A35302E
:10044000253B666C6F61743A6C6566743B706164E1
:1004500064696E673A313070783B626F72646572BE
:100460003A31707820646F747465643B6261636BC9
:1004700067726F756E642D636F6C6F723A7768691F
:1004800074653B666F6E742D73697A653A313070AE
:10049000743B666F6E742D66616D696C793A61723A
:1004A00069616C2C68656C7665746963613B7D0D70
:1004B0000A2E6E657773626C6F636B7B6D6172671A
:1004C000696E3A3470783B77696474683A323425DF
:1004D0003B666C6F61743A6C6566743B7061646412
:1004E000696E673A313070783B626F726465723A58
:1004F000736F6C6964203170783B6261636B677203
:100500006F756E642D636F6C6F723A234646464674
:1005100046463B746578742D616C69676E3A6C650C
:1005200066743B666F6E742D73697A653A3130700C
:10053000743B666F6E742D66616D696C793A617299
:1005400069616C2C68656C7665746963613B7D0DCF
:100550000A2E7072696E7461626C657B6D61726780
:10056000696E3A3470783B77696474683A3234253E
:100570003B666C6F61743A6C6566743B7061646471
:10058000696E673A313070783B626F726465723AB7
:10059000303B6261636B67726F756E642D636F6C65
:1005A0006F723A236665666566653B746578742D7F
:1005B000616C69676E3A72696768743B666F6E74E6
:1005C0002D73697A653A313070743B666F6E742DA5
:1005D00066616D696C793A617269616C2C68656CF1
:1005E0007665746963613B7D0D0A6469762E726677
:1005F00069677B626F726465723A736F6C696420BD
:100600003170783B20746578742D616C69676E3A3F
:100610006C6566743B70616464696E673A31307012
:10062000783B6D617267696E3A313070783B666F06
:100630006E742D73697A653A313070743B666C6FF5
:1006400061743A72696768743B7D0D0A7072652E39
:100650006578616D706C657B626F726465723A7308
:100660006F6C6964203170783B2070616464696EDE
:10067000673A313070783B6D617267696E3A31303C
:1006800070783B746578742D616C69676E3A6C653F
:1006900066743B666F6E742D73697A653A3130709B
:1006A000743B666F6E742D66616D696C793A617228
:1006B00069616C2C68656C7665746963613B776809
:1006C0006974652D73706163653A7072653B7D0D69
:1006D0000A702E696E74726F7B6D617267696E2D20
:1006E0006C6566743A323070783B6D617267696E22
:1006F0002D72696768743A323070783B666F6E7439
:100700002D73697A653A313070743B666F6E742D63
:1007100066616D696C793A617269616C2C68656CAF
:100720007665746963613B7D0D0A702E636C696E3A
:100730006B7B666F6E742D73697A653A31327074B3
:100740003B666F6E742D66616D696C793A636F7587
:10075000726965722C6D6F6E6F73706163653B209B
:10076000746578742D616C69676E3A63656E746543
:10077000723B7D0D0A702E636C696E6B397B666F00
:100780006E742D73697A653A313170743B666F6EA1
:10079000742D66616D696C793A636F757269657203
:1007A0002C6D6F6E6F73706163653B746578742D2B
:1007B000616C69676E3A63656E7465723B7D0D0AA4
:1007C000702E72656C617465647B666F6E742D73D8
:1007D000697A653A313070743B666F6E742D66616C
:1007E0006D696C793A617269616C2C68656C7665CB
:1007F000746963613B746578742D616C69676E3AE6
:1008000063656E7465723B7D0D0A696D672E726952
:100810006768747B666C6F61743A72696768743B71
:100820006D617267696E3A313070783B7D0D0A698F
:100830006D672E6C6566747B666C6F61743A6C656F
:1008400066743B6D617267696E3A313070783B7DDA
:100850000D0A702E6669677B626F726465723A7307
:100860006F6C6964203170783B746578742D616CAD
:1008700069676E3A63656E7465723B706164646942
:100880006E673A313070783B6D617267696E3A31EC
:100890003070783B666F6E742D73697A653A397083
:1008A000743B7D0D0A702E726669677B626F72649D
:1008B00065723A736F6C6964203170783B74657847
:1008C000742D616C69676E3A63656E7465723B7016
:1008D000616464696E673A313070783B6D6172674C
:1008E000696E3A313070783B666F6E742D73697A39
:1008F000653A3970743B666C6F61743A7269676807
:10090000743B7D0D0A702E6C6669677B626F726442
:1009100065723A736F6C6964203170783B746578E6
:10092000742D616C69676E3A63656E7465723B70B5
:10093000616464696E673A313070783B6D617267EB
:10094000696E3A313070783B666F6E742D73697AD8
:10095000653A3970743B666C6F61743A6C656674A5
:100960003B7D0D0A707B70616464696E672D6C65F8
:1009700066743A313070783B7D0D0A702E6D616976
:100980006C616464727B70616464696E672D6C6510
:1009900066743A313070783B666F6E742D73697A85
:1009A000653A3770743B666F6E742D66616D696C65
:1009B000793A636F75726965722C7465726D696ED0
:1009C000616C3B746578742D616C69676E3A72690D
:1009D0006768743B7D0D0A702E72696768747B745A
:1009E0006578742D616C69676E3A72696768743BEB
:1009F0007D0D0A702E626F726465722D7469746C5D
:100A0000657B746578742D616C69676E3A63656E99
:100A10007465723B666F6E742D73697A653A313412
:100A200070743B70616464696E673A3070783B6DD6
:100A3000617267696E3A3470783B6D617267696E96
:100A40002D626F74746F6D3A313070783B636F6CE8
:100A50006F723A626C61636B3B6261636B67726F6A
:100A6000756E642D636F6C6F723A23393943434658
:100A7000463B626F726465723A736F6C69642031D1
:100A800070783B7D002F70726F6365737365732E92
:100A90007368746D6C0025213A202F686561646568
:100AA000722E68746D6C0D0A3C68313E5379737414
:100AB000656D2070726F6365737365733C2F683169
:100AC0003E3C62723E3C7461626C6520776964747E
:100AD000683D2231303025223E3C74723E3C7468C1
:100AE0003E49443C2F74683E3C74683E4E616D65DF
:100AF0003C2F74683E3C74683E5468726561643C87
:100B00002F74683E3C74683E50726F636573732047
:100B100073746174653C2F74683E3C2F74723E0D93
:100B20000A25212070726F6365737365730D0A3C2B
:100B30002F7461626C653E0D0A25212066696C6523
:100B40002D7374617473202E0D0A002F6865616423
:100B500065722E68746D6C003C21444F43545950AB
:100B6000452048544D4C205055424C494320222D9D
:100B70002F2F5733432F2F4454442048544D4C209B
:100B8000342E3031205472616E736974696F6E61F6
:100B90006C2F2F454E222022687474703A2F2F77C5
:100BA00077772E77332E6F72672F54522F68746DBC
:100BB0006C342F6C6F6F73652E647464223E0D0A63
:100BC0003C68746D6C3E3C686561643E3C7469745D
:100BD0006C653E57656C636F6D6520746F2074683B
:100BE000652048455841425553207765622073651A
:100BF00072766572213C2F7469746C653E0D0A3CF7
:100C00006C696E6B2072656C3D227374796C6573D0
:100C1000686565742220747970653D227465787406
:100C20002F6373732220687265663D222F73747977
:100C30006C652E637373223E3C6C696E6B2072652B
:100C40006C3D2269636F6E2220687265663D226684
:100C5000617669636F6E2E706E672220747970659D
:100C60003D22696D6167652F706E67223E0D0A3CFB
:100C70002F686561643E3C626F6479206267636FD0
:100C80006C6F723D22236665666566652220746519
:100C900078743D22626C61636B223E0D0A3C64698C
:100CA0007620636C6173733D226D656E75626C6F47
:100CB000636B223E3C64697620636C6173733D22F2
:100CC0006D656E75223E3C7020636C6173733D22CE
:100CD000626F726465722D7469746C65223E4D6535
:100CE0006E753C2F703E3C7020636C6173733D22C7
:100CF0006D656E75223E3C6120687265663D222FEF
:100D0000223E4D61696E20706167653C2F613E3CFB
:100D100062723E3C6120687265663D22736F636B50
:100D200065745F737461742E7368746D6C223E53C6
:100D30006F636B6574205374617475733C2F613EEF
:100D40003C62723E3C6120687265663D226E65744D
:100D5000775F696E666F2E7368746D6C223E4E65A8
:100D600074776F726B20496E666F3C2F613E3C62F8
:100D7000723E3C6120687265663D2266696C6573EF
:100D80002E7368746D6C223E46696C6520737461C5
:100D9000746973746963733C2F613E3C62723E3CBC
:100DA0006120687265663D227463702E7368746D8D
:100DB0006C223E4E6574776F726B20636F6E6E654A
:100DC0006374696F6E733C2F613E3C62723E3C619E
:100DD00020687265663D2270726F63657373657318
:100DE0002E7368746D6C223E53797374656D207038
:100DF000726F6365737365733C2F613E3C62723E34
:100E00003C68723E3C6120687265663D22636F6E8D
:100E10006669672E7368746D6C223E436F6E6669F7
:100E20006775726174696F6E3C2F613E3C2F703E36
:100E30003C2F6469763E3C2F6469763E0D0A3C6423
:100E4000697620636C6173733D22636F6E74656EA7
:100E500074626C6F636B223E3C7020636C617373D1
:100E60003D22626F726465722D7469746C65223EF6
:100E700057656C636F6D6520746F207468652048DA
:100E800045584142555320776562207365727665F7
:100E900072213C2F703E0D0A002F636F6E666967EA
:100EA0002E7368746D6C0025213A202F686561648B
:100EB00065722E68746D6C0D0A0D0A3C68313E53E4
:100EC0006F636B657420436F6E66696775726174DA
:100ED000696F6E3C2F68313E3C62723E0D0A0D0A0E
:100EE0003C666F726D20616374696F6E3D22636F43
:100EF0006E6669672E7368746D6C22206D65746808
:100F00006F643D22706F7374223E0D0A20203C7482
:100F100061626C6520626F726465723D22312220CD
:100F200063656C6C70616464696E673D2230222079
:100F300063656C6C73706163696E673D2236223E37
:100F40000D0A202020203C74723E0D0A2020202013
:100F500020203C746420616C69676E3D2272696771
:100F60006874223E446F6D61696E204E616D653C10
:100F70002F74643E0D0A0D0A252120636F6E666989
:100F8000672E002F666F6F7465722E68746D6C002B
:100F90003C2F6469763E3C2F626F64793E3C2F683B
:100FA000746D6C3E002F6E6574775F696E666F2E90
:100FB0007368746D6C0025213A202F686561646543
:100FC000722E68746D6C0D0A3C68343E4164647224
:100FD00065737365733C2F68343E0D0A25212061CB
:100FE00064647265737365730D0A3C68343E4E65C4
:100FF000696768626F72733C2F68343E0D0A252161
:10100000206E65696768626F72730D0A0D0A3C2F66
:101010007461626C653E0D0A25212066696C652D40
:101020007374617473202E0D0A002F7463702E7315
:1010300068746D6C0025213A202F686561646572C3
:101040002E68746D6C0D0A3C68313E437572726592
:101050006E7420636F6E6E656374696F6E733C2F80
:1010600068313E3C62723E3C7461626C6520776917
:101070006474683D2231303025223E3C74723E3C1F
:1010800074683E4C6F63616C3C2F74683E3C7468BE
:101090003E52656D6F74653C2F74683E3C74683ECB
:1010A00053746174653C2F74683E3C74683E5265AD
:1010B0007472616E736D697373696F6E733C2F74B4
:1010C000683E3C74683E54696D65723C2F74683E9E
:1010D0003C74683E466C6167733C2F74683E3C2FDD
:1010E00074723E0D0A2521207463702D636F6E6E3D
:1010F000656374696F6E730D0A3C2F7461626C6571
:101100003E0D0A25212066696C652D737461747328
:10111000202E002F66696C65732E7368746D6C00E9
:1011200025213A202F6865616465722E68746D6CA4
:101130000D0A3C68313E46696C65207374617469C0
:1011400073746963733C2F68313E3C62723E3C7439
:1011500061626C652077696474683D2231303025A6
:10116000223E3C747220616C69676E3D226C65663C
:1011700074223E3C74683E4E616D653C2F74683E3F
:101180003C74683E41636365737365733C2F746898
:101190003E3C2F74723E0D0A25212066696C652D38
:1011A0007374617473202A0D0A3C2F7461626C653C
:1011B0003E0D0A25213A202F666F6F7465722E68E6
:1011C000746D6C0D0A002F75706C6F61642E6874FD
:1011D0006D6C003C68746D6C3E3C626F64793E3CA3
:1011E000666F726D20616374696F6E3D2275706CFD
:1011F0006F61642E68746D6C2220656E6374797003
:10120000653D226D756C7469706172742F666F72C2
:101210006D2D6461746122206D6574686F643D2278
:10122000706F7374223E3C696E707574206E616DD0
:10123000653D227573657266696C652220747970EC
:10124000653D2266696C65222073697A653D2235A9
:101250003022202F3E3C696E7075742076616C756B
:10126000653D2255706C6F61642220747970653D14
:10127000227375626D697422202F3E3C2F666F7257
:101280006D3E3C2F626F64793E3C2F68746D6C3EFE
:10129000002F696E6465782E68746D6C0025213AA4
:1012A000202F6865616465722E68746D6C0D0A3C50
:1012B0007020636C6173733D22696E74726F223E9D
:1012C000546865736520706167657320617265207D
:1012D00066726F6D206120776562736572766572E4
:1012E0002072756E6E696E6720756E64657220740B
:1012F000686520436F6E74696B69206F70657261F9
:1013000074696E672073797374656D2E0D0A2521DB
:101310002066696C652D7374617473202E002F66CE
:10132000617669636F6E2E706E670089504E470D4F
:101330000A1A0A0000000D4948445200000010003B
:1013400000001008060000001FF3FF6100000128E4
:101350004944415478DA63F84F2160187A06BCFF9B
:10136000FCFEFFB1C37BFF6FDDB6F5FFF3C7F7707F
:1013700018F01B5368CEBC39FFA31293FF7B050600
:10138000FDF7F275FA5F5C99FD7FEFBEBDD80DF8F1
:10139000FEFDFBFF96B69EFFD76EDF031BD6D2D5B0
:1013A000F3DFD0C6F2BF93ABD3FFA8D8A0FFC5A58B
:1013B000D9FFCF9D3E0696C3E985ECC262A06D5170
:1013C000FFBD42A3FE6B1A68826DCDCE4DFEBF7687
:1013D000D5521417621870EFFEF3FF4B57AD053B63
:1013E000575143138C2D81B66717029DBC6B2BFEA2
:1013F0004004058C93A717D8B9862686408D4E40A9
:10140000DB0DFF276766FFFFFEF93BFE58806BB6DA
:1014100000FAD517E4D7A8FF53664D017B45514725
:10142000F37F4B53CBFFE7CF9F633760E9B2A54013
:10143000FF7A01FDE9F53F3935F97F4F1F3000AFE5
:101440005F032B68E96A81BAC6F27F0F3030B11AA8
:1014500000F2DB94493DFFB7026974A72E5D3607A1
:101460001CEAC999C9C0F83F465E42FA0E4C3CD806
:101470009C3F44F3023A0000236891F233F4E62CD7
:101480000000000049454E44AE426082002F736F59
:10149000636B65745F737461742E7368746D6C0034
:1014A00025213A202F6865616465722E68746D6C21
:1014B0000D0A3C68313E536F636B65742053746151
:1014C0007475733C2F68313E3C62723E0D0A2521D3
:1014D00020736F636B65745F737461740D0A2521EB
:1014E0002066696C652D7374617473202E002F72F1
:1014F0006F626F74732E74787400757365722D61EA
:1015000067656E743A202A0D0A446973616C6C6FCA
:10151000773A202F002F3430342E68746D6C003CE5
:1015200068746D6C3E3C626F6479206267636F6CB7
:101530006F723D227768697465223E3C63656E7404
:1015400065723E3C68313E343034202D2066696C33
:1015500065206E6F7420666F756E643C2F68313E37
:101560003C68333E476F203C6120687265663D22CF
:101570002F223E686572653C2F613E20696E737450
:101580006561642E3C2F68333E3C2F63656E746545
:10159000723E3C2F626F64793E3C2F68746D6C3EE6
:1015A0000000006F027A020B08A115850A960AB5A1
:1015B00000A9154B0B580B4103B115990EA70EDC72
:1015C00000B915830F900F1500C115A50FB60F7444
:1015D00000C9152A103510DE00D11513112011A6EF
:1015E00000D915C611D311BE00E11591129D1281CB
:1015F00000E9151E132B136201F1158D14A0144E72
:1016000000F915EE14FA141B00011615151F1582AA
:10161000003C74723E3C746420616C69676E3D22CC
:101620007269676874223E5375626D69743A3C2F23
:1016300074643E3C74643E3C696E707574207479C9
:1016400070653D227375626D6974222076616C75D8
:10165000653D22205375626D69742022203E3C2F27
:1016600074643E3C2F74723E3C2F7461626C653E24
:101670003C2F666F726D3E003C74723E3C74642079
:10168000616C69676E3D227269676874223E466FBD
:101690007277617264696E673C2F74643E3C746457
:1016A0003E3C696E70757420747970653D2272617C
:1016B00064696F22206E616D653D22726F75746979
:1016C0006E67222076616C75653D2231222025737C
:1016D0003E4F6E3C696E70757420747970653D2262
:1016E000726164696F22206E616D653D22726F7553
:1016F00074696E67222076616C75653D2230222008
:1017000025733E4F66663C2F74643E3C2F74723ED8
:10171000003C74723E3C746420616C69676E3D22CB
:101720007269676874223E44656661756C74205204
:10173000656C61792053746174653C2F74643E3C20
:1017400074643E3C696E70757420747970653D22D6
:10175000726164696F22206E616D653D2272656CF5
:101760006179222076616C75653D223122202573D6
:101770003E4F6E3C696E70757420747970653D22C1
:10178000726164696F22206E616D653D2272656CC5
:101790006179222076616C75653D223022202573A7
:1017A0003E4F66663C2F74643E3C2F74723E003C94
:1017B00074643E3C696E707574206E616D653D2287
:1017C000646F6D61696E5F6E616D65222074797002
:1017D000653D2274657874222073697A653D2235EF
:1017E0003022206D61786C656E6774683D223330FD
:1017F000222076616C75653D222573223E3C2F7454
:10180000643E3C2F74723E003C666F726D206163D3
:1018100074696F6E3D22736F636B65745F7374617F
:10182000742E7368746D6C22206D6574686F643DEE
:1018300022706F7374223E3C696E707574207479E7
:1018400070653D227375626D6974222076616C75D6
:10185000653D22257322203E3C2F666F726D3E004F
:101860003C656D3E43757272656E742052656C61A5
:10187000792073746174653A3C2F656D3E20257341
:10188000203C62723E003C656D3E456C656374723F
:101890006963616C20706F77657220636F6E73751A
:1018A0006D7074696F6E3A3C2F656D3E2025642023
:1018B000576174743C62723E003C636F64653E0025
:1018C0003C62723E003C2F636F64653E5B526F6FFB
:1018D0006D20666F72202575206D6F72655D003C0E
:1018E000747220616C69676E3D2263656E74657207
:1018F000223E3C74643E25703C2F74643E3C74640C
:101900003E25733C2F74643E3C74643E25703C2F2E
:1019100074643E3C74643E25733C2F74643E3C2FDB
:1019200074723E0D0A002D25753C2F74643E3C7484
:10193000643E25733C2F74643E3C74643E25753CC4
:101940002F74643E3C74643E25753C2F74643E3CA9
:1019500074643E25632025633C2F74643E3C2F74E1
:10196000723E0D0A003C747220616C69676E3D2204
:1019700063656E746572223E3C74643E25643C2F40
:1019800074643E3C74643E00253575003C74723EC0
:101990003C74643E3C6120687265663D222573227A
:1019A0003E25733C2F613E3C2F74643E3C74643E84
:1019B00025643C2F74643E003C7020636C6173733B
:1019C0003D72696768743E3C62723E3C62723E3CA6
:1019D000693E54686973207061676520686173208F
:1019E0006265656E2073656E742025752074696D5F
:1019F00065733C2F693E3C2F6469763E3C2F626FD5
:101A000064793E3C2F68746D6C3E0066696C652D90
:101A10007374617473007463702D636F6E6E6563AD
:101A200074696F6E730070726F63657373657300B2
:101A3000616464726573736573006E65696768627B
:101A40006F727300736F636B65745F73746174009E
:101A5000636F6E66696700434C4F534544005359AA
:101A60004E2D524356440053594E2D53454E54006B
:101A700045535441424C49534845440046494E2D34
:101A8000574149542D310046494E2D574149542D57
:101A90003200434C4F53494E470054494D452D5752
:101AA000414954004C4153542D41434B004E4F4E3D
:101AB000450052554E4E494E470043414C4C45441B
:101AC000000011241FBECFEFD0E4DEBFCDBF14E075
:101AD000A0E0B1E0E2E6F0E001E00BBF02C0079059
:101AE0000D92A039B107D9F710E3A0E9B4E001C025
:101AF0001D92A737B107E1F70E94AA0F0C942F801F
:101B00000C940000FC011182108283E0089500D043
:101B100000D000D0EDB7FEB731962CE830E0ADB77D
:101B2000BEB712963C932E9311979383828375834D
:101B300064830E94EE7B8DB79EB706960FB6F8942D
:101B40009EBF0FBE8DBF089561E170E040E150E09F
:101B50000E94177F089561E070E048E050E00E9425
:101B6000177F81E008951F93182F85E490E0612F7F
:101B70000E943F7F1093D21F1F91089585E490E04B
:101B80000E94277F089584E490E00E94277F0895B3
:101B900089E090E00E942F7F08958BE090E00E9402
:101BA0002F7F08952F923F924F925F926F927F9274
:101BB0008F929F92AF92BF92CF92DF92EF92FF925D
:101BC0000F931F93DF93CF93CDB7DEB7C855D040A7
:101BD0000FB6F894DEBF0FBECDBF0E9492100E94D8
:101BE0009E100E9427690E94DD0F85E490E00E940C
:101BF000277F8093D21F00D000D08BE191E0ADB75A
:101C0000BEB712969C938E93119781E291E0149641
:101C10009C938E9313970E94EE7B0F900F900F90E2
:101C20000F900E9476200E94601C82EA91E060E0A2
:101C300070E00E94341D0E942F20E0914701F09136
:101C4000480109958E010F5F1F4F88E0F80111923E
:101C50008A95E9F7C80161E070E048E050E00E9431
:101C6000177FA7E1B1E2F80188E001900D92815061
:101C7000E1F78BE090E00E942F7F8C0189E090E0FB
:101C80000E942F7FBC01C8018E010F5F1F4FA8016A
:101C90000E945A128BE090E00E942F7F90937A016D
:101CA0008093790190937C0180937B01C8010E940D
:101CB000EB172DB73EB7225130400FB6F8943EBF18
:101CC0000FBE2DBFEDB7FEB7319686EF90E0ADB7F2
:101CD000BEB712969C938E9311978981828313824B
:101CE0008A81848315828B81868317828C81808789
:101CF00011868D81828713868E81848715868F81D8
:101D0000868717868885808B118A0E94EE7BEDB7C7
:101D1000FEB772960FB6F894FEBF0FBEEDBF0E94DD
:101D20003C23E0918A01F0918B010995E0916D01CE
:101D3000F0916E010995E0911102F091120209955E
:101D400000916B0110916C01E0908801F090890185
:101D50000E94EF102DB73EB7285030400FB6F894D0
:101D60003EBF0FBE2DBFEDB7FEB7319624EE30E07B
:101D7000ADB7BEB712963C932E931197138302838F
:101D8000F582E482978386830E94EE7BE091940142
:101D9000F09195012DB73EB7285F3F4F0FB6F894ED
:101DA0003EBF0FBE2DBF3097F1F00995BC018DE706
:101DB00090E00E94617A8FEF6F3F7807A1F000D02A
:101DC00000D081ED90E0ADB7BEB712969C938E9394
:101DD000119714967C936E9313970E94EE7B0F904D
:101DE0000F900F900F9000D08FEC90E0EDB7FEB702
:101DF000928381830E94EE7B0F900F9084EE91E09E
:101E000060E070E00E94341D85E292E060E070E0E6
:101E10000E94341D8EEC92E060E070E00E94341D60
:101E20000E94116281E493E060E070E00E94341D42
:101E30000E947D670E94DF678DE191E00E94841D12
:101E400024E7422E27E2522E6624772499E0292E99
:101E5000312C2C0E3D1ED2018C91882369F1F301A7
:101E600085E0EE0FFF1F8A95E1F7E60DF71DEB58B1
:101E7000F84DA080B180C280D380E480F5800681D7
:101E800017812085318542855385648575858685D2
:101E9000978541010E94CF5600D000D02DEB30E055
:101EA000EDB7FEB732832183348223820E94EE7B1A
:101EB0000F900F900F900F900894611C711C81E29D
:101EC00090E0480E591E94E06916710421F68E01C7
:101ED000075F1F4FC80161E270E04EE150E00E94D1
:101EE000177F1FA20E942B5600D000D000D0EDB764
:101EF000FEB7319622E930E0ADB7BEB712963C93FB
:101F00002E93119713830283958384830E94EE7B23
:101F1000EDB7FEB736960FB6F894FEBF0FBEEDBF15
:101F2000C85ADF4F0FB6F894DEBF0FBECDBFCF91BA
:101F3000DF911F910F91FF90EF90DF90CF90BF90B6
:101F4000AF909F908F907F906F905F904F903F9059
:101F50002F9008950E94D20D0E948F1C0E94AA10FB
:101F6000FBCF2091D71F3091D81F4091D91F50919E
:101F7000DA1F90E0A0E0B0E0280F391F4A1F5B1F76
:101F80002093D71F3093D81F4093D91F5093DA1F47
:101F90002091D31F3091D41F4091D51F5091D61F4F
:101FA000280F391F4A1F5B1F2093D31F3093D41F64
:101FB0004093D51F5093D61F0895F8941092B60001
:101FC0001092B2008DE38093B30092E09093B00042
:101FD00087E08093B10087B387BB909370007894BB
:101FE00008952091900430919104809190049091F3
:101FF000910428173907A9F7C901089507C022E3FA
:1020000030E0000021503040E1F701970097B9F728
:102010000895BC01409190045091910480919004E6
:102020009091910448175907A9F720919004309195
:102030009104809190049091910428173907A9F791
:10204000241B350B2617370780F308950895209138
:10205000D71F3091D81F4091D91F5091DA1F80911E
:10206000D71F9091D81FA091D91FB091DA1F2817C0
:1020700039074A075B0759F7B901CA0108951F924A
:102080000F920FB60F920BB60F9211242F933F931E
:102090004F935F936F937F938F939F93AF93BF9370
:1020A000EF93FF9380919004909191040196909307
:1020B000910480939004809192048F5F80939204A6
:1020C000809192048D37A9F4109292048091D71FC9
:1020D0009091D81FA091D91FB091DA1F0196A11D30
:1020E000B11D8093D71F9093D81FA093D91FB09391
:1020F000DA1F0E94AB1D892B11F00E942A1EFF914E
:10210000EF91BF91AF919F918F917F916F915F916F
:102110004F913F912F910F900BBE0F900FBE0F90DC
:102120001F90189584B7877F84BF88E10FB6F89415
:1021300080936000109260000FBE08952FE088E148
:1021400090E00FB6F894A895809360000FBE20939E
:1021500060000895A895089588E10FB6F8948093DB
:102160006000109260000FBE0895F89428E088E1A6
:1021700090E00FB6F894A895809360000FBE20936E
:102180006000FFCF80E04F9981E008958091930433
:102190008091930490E0089580E090E0089580E0BD
:1021A00090E0089581E06FE140E00E9443168130A5
:1021B00021F020E030E0813111F421E030E0C9016C
:1021C00008954F9B03C020E030E007C085E06FE03A
:1021D00040E00E944316282F30E0C901089588E0AE
:1021E0006FE140E00E94431690E0089581E06FE1C6
:1021F00040E00E944316089581E06FE140E00E94B4
:102200004316823021F0823111F081E0089580E0A0
:102210000895282F4F9905C085E06FE040E00E94A7
:10222000561608955F988DE090E00197F1F782E0EF
:102230006FE140E023E00E94561683E090E00197B2
:10224000F1F708950F931F93082F883059F08630C7
:1022500049F0893039F0863129F0893119F022E4CA
:1022600030E052C04F9B03C024E430E04DC081E019
:102270006FE140E00E944316182F81518230B8F37D
:102280001130A9F3123099F3011709F43BC008305B
:1022900019F40E94121122C0093119F4163179F48F
:1022A00004C0063161F4193151F482E06FE140E07D
:1022B00029E00E94561683E090E00197F1F782E052
:1022C0006FE140E0202F0E945616183019F481E982
:1022D00091E002C083E090E00197F1F781E06FE1C7
:1022E00040E00E944316801719F023E430E00CC050
:1022F000063011F0063121F481E08093E01F02C026
:102300001092E01F20E430E0C9011F910F91089561
:1023100081E0809367205F9889EF92E0FC0131971C
:10232000F1F70197F1F786E10E942211089580915B
:102330006720882351F480919404882321F081E060
:102340008093950402C00E94881181E090E0089576
:10235000AF92BF92CF92DF92EF92FF920F931F93B3
:10236000DF93CF930F92CDB7DEB7182F092F8FB71A
:102370008983F89481E06FE140E00E944316A82E23
:1023800085E160E847E00E944316B82E86E00E948F
:10239000221185E160E847E020E00E945616212FD7
:1023A000302FC9016C0100E0F6011082EE24FF24F9
:1023B000F601108186E060E645E00E94431690E059
:1023C0000E2C02C0880F991F0A94E2F7182BF60111
:1023D000108382E090E0E80EF91E98E0E916F1041F
:1023E00039F70F5F0894C11CD11C0031E9F685E173
:1023F00060E847E02B2D0E9456168A2D0E9422117C
:1024000089818FBF0F90CF91DF911F910F91FF9026
:10241000EF90DF90CF90BF90AF900895DF92EF9252
:10242000FF920F931F93DF93CF930F92CDB7DEB739
:102430008FB78983F89481E06FE140E00E944316F2
:10244000D82E85E160E847E00E944316E82E86E03A
:102450000E94221185E160E847E020E00E945616C4
:10246000FF2400E010E086E060E645E00E944316AD
:1024700090E0002E02C0880F991F0A94E2F7F82A14
:102480000E5F1F4F0830110571F785E160E847E0E6
:102490002E2D0E9456168D2D0E94221189818FBFEC
:1024A0008F2D0F90CF91DF911F910F91FF90EF90A3
:1024B000DF900895AF92BF92CF92DF92EF92FF929A
:1024C0000F931F93CF93DF93282F192F062FF72EEB
:1024D000EA0182E2622F0E94281683E2612F0E94A5
:1024E000281680E2602F0E94281681E26F2D0E943C
:1024F00028162097D1F18E010F5F1F4F8BE2688164
:102500000E94281668010894C11CD11C8AE26981C6
:102510000E94281656010894A11CB11C89E2F801FA
:1025200061810E94281675010894E11CF11C88E263
:10253000F60161810E94281687010F5F1F4F87E215
:10254000F50161810E94281686E2F70161810E94EF
:10255000281685E2F80161810E94281684E20F5F47
:102560001F4FF80161810E942816DF91CF911F91C2
:102570000F91FF90EF90DF90CF90BF90AF900895B4
:102580000F931F93DF93CF93CDB7DEB728970FB686
:10259000F894DEBF0FBECDBF8B01882309F43FC086
:1025A00087E161E041E021E00E9456168EE260E1A1
:1025B00044E021E00E9456168CE061E047E021E013
:1025C0000E9456168EE268E043E020E00E94561614
:1025D0008CE261E040E020E00E94561687E160E175
:1025E00044E020E00E94561687E160E245E020E0EA
:1025F0000E945616FE01319688E0DF011D928A95F1
:10260000E9F780E090E060E070E0AF010E945A12CC
:1026100081E08093E11F86E00E9422111BC087E1C8
:1026200061E041E020E00E9456168EE260E144E065
:1026300020E00E9456168CE061E047E020E00E9416
:1026400056168DEC9BEA60E070E0A8010E945A12D9
:102650001092E11F28960FB6F894DEBF0FBECDBFD3
:10266000CF91DF911F910F9108950F931F9305E96B
:1026700012E0C8010197F1F70E94F4155F985E9A85
:102680002C9A81E293E00197F1F75E9883E090E065
:102690000197F1F75E9A85E390E00197F1F783E007
:1026A00060E00E94281682E06FE140E023E00E9493
:1026B0005616C8010197F1F78DE10E940D168EE1C3
:1026C0000E940D168CE10E940D168CE068E00E94BD
:1026D000281684E160E00E94281688E06FE140E05F
:1026E00020E00E94561688E060E645E020E00E9467
:1026F000561689E06FE040E028E00E94561687E118
:1027000060E446E021E00E9456168CE260EF44E06F
:1027100022E00E9456168CE061E047E020E00E9433
:1027200056168EE268E043E020E00E9456168CE2E6
:1027300061E040E020E00E9456168EE260EC46E048
:1027400021E00E94561687E160E144E020E00E940B
:10275000561687E160E245E020E00E94561685E0CB
:1027600062E60E94281685E160E00E9428168EE04D
:102770006CEA0E9428168CE260EF44E022E00E949E
:10278000561684E060E245E021E00E94561686E19C
:102790000E9422118DE391E060E070E00E94341D00
:1027A00081E090E01F910F9108950F931F93DF93A5
:1027B000CF930F92CDB7DEB78C0180E1898383E898
:1027C00061E0AE014F5F5F4F0E94141784E860E143
:1027D000A8010E9414170F90CF91DF911F910F91C4
:1027E0000895EF92FF920F931F93DF93CF9300D042
:1027F0000F92CDB7DEB77C01198280E88A831B82F5
:1028000083E861E0AE014F5F5F4F0E94141784E8D8
:1028100060E1A7010E94141784E961E0AE014E5FF8
:102820005F4F0E94141781E390E00197F1F78E014A
:102830000D5F1F4F05C082E861E0A8010E94EE16FF
:102840008B8180FD02C087FFF6CF87FF02C081E049
:1028500006C084E860E1A7010E94EE1680E00F90B8
:102860000F900F90CF91DF911F910F91FF90EF90FC
:1028700008958DE391E00E94611D81E080939304AF
:1028800008951F9381E06FE140E00E944316182FE6
:102890000E94AA10812F81518230A0F3113091F350
:1028A000123081F31F910895109267200E94411405
:1028B0000E9412115F9A089580919504882321F057
:1028C0000E9488111092950480919604882321F02B
:1028D0000E945414109296041092940408951F9329
:1028E000482F1091E21F1123D1F081E080939404CE
:1028F0001330C0F480919D2090919E20A0919F2044
:10290000B091A0200196A11DB11D80939D209093B0
:102910009E20A0939F20B093A0200E945C1420E0F2
:1029200030E065C0E12FF0E032976E177F07A0F42A
:102930008091992090919A20A0919B20B0919C2009
:102940000196A11DB11D8093992090939A20A09388
:102950009B20B0939C20E1CF23EE3FE1842FB9016F
:10296000AF010E94817B1092E21F80916320882337
:1029700021F186E06FE140E00E944316682F84E079
:1029800070E00E9410216091622083E070E00E945C
:1029900010218091B5209091B620A091B720B091E0
:1029A000B8200196A11DB11D8093B5209093B6204B
:1029B000A093B720B093B82014C08091A520909127
:1029C000A620A091A720B091A8200196A11DB11D1D
:1029D0008093A5209093A620A093A720B093A82031
:1029E00012E00E945C14212F30E022503040C901D7
:1029F0001F910895CF93DF93EC018881998100970F
:102A000021F08F599240F9F405C08FE992E0998343
:102A1000888302C0623811F081E018C010929304DC
:102A20000E945D210E94CC2060E870E00E946F143B
:102A30001816190654F70E94C720E0918E01F091F4
:102A40008F010995E2CF1982188283E0DF91CF913F
:102A5000089580916720882351F080919404882301
:102A600021F081E08093960402C00E94541481E01A
:102A700090E008950F931F93CF93DF938091940478
:102A8000882319F0C1E0D0E027C080916820882316
:102A900019F000E010E004C00E94971101E010E07E
:102AA00088E060E847E021E00E94561681E293E06A
:102AB0000197F1F781E060E847E00E944316882320
:102AC000C9F381E060E446E00E944316C82FD0E0DD
:102AD000012B11F00E942915CE01DF91CF911F919A
:102AE0000F9108951F93CF93DF93809167208823E0
:102AF00019F0C0E0D0E004C00E949711C1E0D0E01E
:102B000086E06FE140E00E944316182FCD2B11F0B4
:102B10000E942915212F332727FD3095C901DF9108
:102B2000CF911F9108951F93DF93CF93CDB7DEB759
:102B3000CF57D0400FB6F894DEBF0FBECDBF9C017B
:102B4000AB0181E0809394048091B1209091B220F8
:102B5000A091B320B091B4200196A11DB11D809326
:102B6000B1209093B220A093B320B093B420162F3D
:102B70001E5F17FF03C02FEF3FEF1FC0CE0101966E
:102B8000B9010E94817B0E94411480919704909129
:102B90009804019711F489E001C089E10E94221193
:102BA000CE010196612F0E94C8165F9A5F980E941D
:102BB00041140E945C1420E030E0C901C158DF4F8D
:102BC0000FB6F894DEBF0FBECDBFCF91DF911F913E
:102BD0000895892B41F40E94411488E06FE140E0A0
:102BE00020E00E9456160895579A569A84B1806B39
:102BF00084B985B1806985B980E58CBD81E08DBDE2
:102C000083E480938100B59AE89AE9E6F0E0808158
:102C100083608083589855980895DF93CF930F92DF
:102C2000CDB7DEB780689FB79983F8942C988EBD96
:102C30000DB407FEFDCF8EB58EBD0DB407FEFDCFE2
:102C40008EB52C9A99819FBF0F90CF91DF910895F7
:102C5000DF93CF930F92CDB7DEB7806C9FB7998388
:102C6000F8942C988EBD0DB407FEFDCF8EB56EBDC9
:102C70000DB407FEFDCF8EB52C9A89818FBF0F90C2
:102C8000CF91DF910895FF920F931F93062FF42E9B
:102C90000E940D16082310E002C015950795FA94BE
:102CA000E2F7802F1F910F91FF900895DF92EF922E
:102CB000FF920F931F93D82EF62EE42E022F0E9420
:102CC0000D166F2D6095682310E002C0000F111FD4
:102CD000EA94E2F7F0226F298D2D0E9428161F91A9
:102CE0000F91FF90EF90DF900895DF93CF930F92B5
:102CF000CDB7DEB7FC018FB78983F8942C9880E2BA
:102D00008EBD0DB407FEFDCF8EB58EBD0DB407FE92
:102D1000FDCF9EB5892F83508D3770F590839EBD72
:102D20000DB407FEFDCFDF0111968EB51EBC8D934D
:102D30000DB407FEFDCF9150C1F78EB5E058FF4F9F
:102D40008083E058F0401EBC0DB407FEFDCF8EB569
:102D5000EE57FF4F8083E258F0401EBC0DB407FED3
:102D6000FDCF8EB51EBC2C9AEF57FF4F108287FF08
:102D700009C081E0808306C02C9A1082E058FF4F82
:102D80001192108289818FBF0F90CF91DF910895AA
:102D9000DF93CF930F92CDB7DEB7FC016F778FB77C
:102DA0008983F8942C9880E68EBD0DB407FEFDCF84
:102DB0008EB56EBD0DB407FEFDCF8EB581918EBD73
:102DC00061500DB407FEFDCF8EB56623B9F72C9A7E
:102DD00089818FBF0F90CF91DF910895DF93CF93BB
:102DE0000F92CDB7DEB7982FFA018FB78983F89489
:102DF0002C981EBC0DB407FEFDCF8EB59EBD0DB444
:102E000007FEFDCF8EB51EBC0DB407FEFDCF8EB5FF
:102E10008083615011F03196F6CF2C9A89818FBF53
:102E20000F90CF91DF910895DF93CF930F92CDB79D
:102E3000DEB7982FFA018FB78983F8942C9880E435
:102E40008EBD0DB407FEFDCF8EB59EBD0DB407FE41
:102E5000FDCF8EB581918EBD0DB407FEFDCF8EB531
:102E60006150C1F72C9A89818FBF0F90CF91DF916C
:102E700008951F920F920FB60F920BB60F92112466
:102E80001F932F933F934F935F936F937F938F93F2
:102E90009F93AF93BF93EF93FF93DF93CF930F92E3
:102EA000CDB7DEB72C988FE88EBD0DB407FEFDCFF1
:102EB0008EB58EBD0DB407FEFDCF1EB52C9A13FF47
:102EC0003FC081E00E940D168F7189838981813115
:102ED00049F08981863031F08981813019F089810A
:102EE0008631D9F482E06FE140E029E00E94561675
:102EF00082EE9FE160E070E00E9475168091970479
:102F000090919804892B39F081E090E090939A0495
:102F10008093990402C00E9439148091D21F8823A3
:102F200021F48091E11F882329F082E06FE140E0E5
:102F300026E004C082E06FE140E026E10E945616E0
:102F400017FF08C08EE00E940D16682F6F778EE085
:102F50000E9428160F90CF91DF91FF91EF91BF91C2
:102F6000AF919F918F917F916F915F914F913F9121
:102F70002F911F910F900BBE0F900FBE0F901F90BF
:102F80001895AC0120E030E0FA01E20FF31FDB01FD
:102F9000A20FB31F8C9180832F5F3F4F28303105E4
:102FA00099F70895AC0120E030E0FA01E20FF31F39
:102FB000DB01A20FB31F90818C91981719F020E0CC
:102FC00030E007C02F5F3F4F2830310571F721E017
:102FD00030E0C9010895AC0120E030E0F901E75983
:102FE000FF4DDA01A20FB31F8C9180832F5F3F4FFB
:102FF0002830310599F70895E0918C01F0918D0109
:1030000009950895E0911302F0911402099508952D
:10301000E0919001F091910109950895E09192015C
:10302000F09193010995089580E090E00895089546
:10303000E0915701F091580109950895892B31F0DD
:10304000E0915701F091580109950895E0915901D7
:10305000F0915A010995089580E090E008950F934A
:103060001F93DF93CF93CDB7DEB760970FB6F89479
:10307000DEBF0FBECDBF8E010F5F1F4FC8010E9484
:10308000A40DC8010E94D5130E9479208093B92015
:10309000E0915701F0915801099560960FB6F894A8
:1030A000DEBF0FBECDBFCF91DF911F910F9108956D
:1030B0003F924F925F926F927F928F929F92AF92C8
:1030C000BF92CF92DF92EF92FF920F931F93DF9305
:1030D000CF93CDB7DEB7A0970FB6F894DEBF0FBE83
:1030E000CDBF8C017E010894E11CF11C80E1F70149
:1030F00011928A95E9F7F801278D2295220F207EFB
:10310000858D8770282B868D90E08370907033E0DA
:10311000880F991F3A95E1F7282B2983B8016B5E38
:103120007F4FCE0102960E94C117F80180A191A1A4
:10313000A2A1B3A18A879B87AC87BD8784A18E8714
:10314000188A1F860E94FA20A0E0B0E0BC01CD01E1
:103150000E94D37720E030E040E85DE30E9455769E
:103160000E94B77C0E947F74362ECC248824992438
:1031700081E1682E712C6C0E7D1E270137C0D301B2
:10318000F20180E101900D928150E1F7C3010E94AC
:10319000F113882319F021E030E054C0AA24BB24A5
:1031A0000E94CC207C018501080D191DF301EA0D58
:1031B000FB1DD0800E94CC20E00EF11E080F191FCD
:1031C000F80180818D25F70180830894A11CB11C32
:1031D000F0E1AF16B10421F78F8598890196988B9D
:1031E0008F87C39480E190E0880E991EC31438F253
:1031F0000E94CC208C010E94FA20080F191F015058
:103200001040F801D080ED2C0EC00E94CC208C0123
:103210000E94FA208E199109080F191FF801808168
:10322000882329F4EA948E2D82508E3070F3F1E0D9
:10323000EF1631F40E94FA208D1991090E94C720DF
:1032400020E030E0C901A0960FB6F894DEBF0FBEB3
:10325000CDBFCF91DF911F910F91FF90EF90DF9045
:10326000CF90BF90AF909F908F907F906F905F9026
:103270004F903F9008950F931F93DF93CF93CDB757
:10328000DEB7E0970FB6F894DEBF0FBECDBF0E9449
:10329000FA208C010E94CC20602FAE014F5F5F4F5F
:1032A0000E945A6B882309F45FC088A99801281BE3
:1032B0003109C9010E94A820892B09F455C04E810B
:1032C0004423E1F18091E11F882369F42A853B853D
:1032D00080917B0190917C012817390721F02F5FA5
:1032E0003F4F09F041C0423071F028E030E0BE01AC
:1032F000645F7F4F21503040FB01E20FF31F80815C
:103300008F3F21F007C022E030E0F1CF1216130604
:103310008CF314C089E10E942F218091E11F882342
:1033200069F48091D21F882349F489E10E94242105
:1033300069E670E20E94D217892BB1F08A81882356
:1033400041F08091E11F882321F4CE0101960E9473
:10335000581888E1BE016A5E7F4F0E942F21E091DC
:103360007101F09172010995E0960FB6F894DEBFF5
:103370000FBECDBFCF91DF911F910F9108952F9276
:103380003F924F925F926F927F928F929F92AF92F5
:10339000BF92CF92DF92EF92FF920F931F93DF9332
:1033A000CF93CDB7DEB7A2970FB6F894DEBF0FBEAE
:1033B000CDBF8C017E010894E11CF11C80E1F70176
:1033C00011928A95E9F7F801278D2295220F207E28
:1033D000858D8770282B868D90E08370907063E0D8
:1033E000880F991F6A95E1F7282B2983B8016B5E36
:1033F0007F4FCE0102960E94C117F80180A191A1D2
:10340000A2A1B3A18A879B87AC87BD8784A18E8741
:10341000188A1F860E94FA20A0E0B0E0BC01CD010E
:103420000E94D37720E030E040E85DE30E945576CB
:103430000E94B77C0E947F74262E3324882499240E
:1034400051E1452E512C4C0E5D1EE9A2FAA2662ECA
:1034500077240894610871088EC0D20189A19AA1CD
:10346000FC0180E101900D928150E1F7C2010E94C0
:10347000F113882319F021E030E08BC00E94FA207C
:103480008F709070892B29F0832D90E08615970519
:10349000FCF4AA24BB240E94CC207C018501080DE9
:1034A000191DF201EA0DFB1DD0800E94CC20E00E18
:1034B000F11E080F191FF80180818D25F701808307
:1034C0000894A11CB11CF0E1AF16B10421F749C06A
:1034D0008615970509F045C0BB2416C00E94CC2074
:1034E0007C018601080D191DC40CD51CF601D08085
:1034F0000E94CC20E00EF11E080F191FF8018081F8
:103500008D25F7018083B3940E94FA20CB2CDD2413
:103510008F709070C816D90608F30E94FA20082F01
:103520000F700EC00E94CC20E02FF0E0DC01AE0F47
:10353000BF1FA80DB91DE40DF51D80818C930F5F91
:103540000F3081F70E94CC208C01F8A00E94FA2055
:10355000080D191D8F70F0E1F81B8F2F8F25F801D2
:1035600087878F8598890196988B8F87339480E120
:1035700090E0880E991E321408F46FCF822D90E0EF
:1035800044E0880F991F4A95E1F70E94C72020E088
:1035900030E0C901A2960FB6F894DEBF0FBECDBFD2
:1035A000CF91DF911F910F91FF90EF90DF90CF901F
:1035B000BF90AF909F908F907F906F905F904F9053
:1035C0003F902F900895AF92BF92CF92DF92EF92EB
:1035D000FF920F931F93DF93CF93CDB7DEB7E097A2
:1035E0000FB6F894DEBF0FBECDBF6C015B01FE01CC
:1035F000319680E3DF011D928A95E9F780912D01D4
:10360000882359F12091BB203091BC204091BD20EE
:103610005091BE20DA01C9010196A11DB11D809310
:10362000BB209093BC20A093BD20B093BE200097F8
:10363000A105B10529F48091BA208F5F8093BA204B
:1036400081E08A838F8F84E08E8F29A33AA34BA3D6
:103650005CA38091BA208DA301C01A821B8211E065
:1036600019838CE00E941B218C831D821F83809113
:10367000B92089878F5F8093B92013E018878091E4
:10368000790190917A019B878A8789E10E942421A0
:103690006BE571E00E94D217892B39F082E08E83AE
:1036A0008FEF8C878D871C8209C089E10E942421BD
:1036B000BC01CE010C960E94C1171E8380917B0134
:1036C00090917C019D8B8C8BCE01469669E670E2D1
:1036D0000E94C11780912D01882321F0CE0101960F
:1036E0000E94BF190E94CC209FA78EA70E94FA209B
:1036F00088AB7E010894E11CF11CC7010E94556E45
:10370000182F90E00E948320892B39F10E94D92044
:10371000BC01C701412F0E941E6DE0904D01F09049
:103720004E010E94D9208C010E940421BC01C801D5
:10373000F7010995C114D10481F0009719F00197A0
:1037400061F404C0C50160E070E003C0C50164E03D
:1037500070E041E050E0F6010995E0960FB6F8946C
:10376000DEBF0FBECDBFCF91DF911F910F91FF90B4
:10377000EF90DF90CF90BF90AF9008958091A70415
:103780008F5F8093A704815008951F93CF93DF9399
:10379000EC01162F888580FF1CC0EC81FD813097DD
:1037A000C1F0D0939E04C0939D0482E08887CE012F
:1037B00006960995992787FD90950297029710F034
:1037C000133829F4CE01BE010E94ED1B02C081E036
:1037D0008887DF91CF911F910895CF92DF92EF926A
:1037E000FF920F931F93CF93DF93EC017B01C09067
:1037F0009D04D0909E0400919B0410919C04F801BC
:1038000003C00190F081E02DEC17FD0719F030970F
:10381000C1F746C0209709F443C08885882309F181
:1038200018860BC0C017D10729F0C80167E8AE01A0
:103830000E94C51BF801008111810115110591F746
:10384000EC81FD81309769F0CE15DF0551F0D09302
:103850009E04C0939D04CE01069663E840E050E0CC
:103860000995E0919B04F0919C04CE17DF0791F439
:103870008881998190939C0480939B040DC08081E2
:1038800091818C179D0729F4888199819183808388
:1038900003C0FC01309799F7D0929E04C0929D041A
:1038A000DF91CF911F910F91FF90EF90DF90CF901C
:1038B000089560919D0470919E040E94ED1B0895EF
:1038C0008AE88093A7041092A9041092A804109289
:1038D0009C0410929B0410929E0410929D040895E3
:1038E0001F93CF93DF9310924A05C0919B04D09110
:1038F0009C0411E00EC08985882341F01887198641
:10390000CE0162E840E050E00E94C51B0990D881DA
:10391000C02D209781F7DF91CF911F91089580915D
:103920004A05882311F00E94701C2091A8042223CC
:1039300009F455C08091A90490E0FC01EE0FFF1F2F
:10394000EE0FFF1FE80FF91FE655FB4F60816093F4
:10395000A604418152815093A5044093A40403809E
:10396000F481E02DF093A304E093A20401968F71FB
:1039700090708093A90421502093A804309741F5BA
:1039800080919B0490919C0418C080914A058823E3
:1039900011F00E94701C4091A4045091A5048091E4
:1039A000A0049091A1046091A6040E94C51BE0911F
:1039B000A004F091A104808191819093A10480934F
:1039C000A0048091A0049091A104892BF1F607C076
:1039D000613811F481E08087CF010E94C51B80917E
:1039E0004A052091A80430E0280F311DC90108952F
:1039F00080914A052091A80430E0280F311DC901AB
:103A00000895DC012091A804203219F421E030E06F
:103A10001AC08091A904820F8F7180939F0490E057
:103A2000FC01EE0FFF1FEE0FFF1FE80FF91FE65519
:103A3000FB4F608352834183B483A3832F5F209322
:103A4000A80420E030E0C90108950F931F9300916E
:103A50009D0410919E040E94C51B10939E04009328
:103A60009D041F910F910895CF93DF93DC01EB012B
:103A700060919B0440919C04862F942F9C01F90136
:103A800003C00190F081E02DEA17FB07B9F03097F1
:103A9000C1F76C9311964C931197B0939C04A0932B
:103AA0009B0481E018968C93189717961C921E928F
:103AB0001697CD0161E8AE010E94251DDF91CF91DF
:103AC0000895FC01009741F080858150823020F4F8
:103AD00081E0818780934A05089520E030E0FC0171
:103AE0008085882311F021E030E0C9010895CF934B
:103AF000DF93EC0102C00E94591C899199910097B3
:103B0000D1F7DF91CF910895CF93DF93EC0104C0FB
:103B100060E070E00E94341D899199910097C1F78F
:103B2000DF91CF91089520E030E0FC0186819781FC
:103B3000892B11F421E030E0C9010895FC012281B4
:103B4000338180819181280F391FC9010895FC01BB
:103B500080819181089520914B0530914C0521156C
:103B6000310511F021E030E0C901089580914B0545
:103B700090914C05892B19F420E030E004C020918D
:103B80004D0530914E05C901089580914B059091E6
:103B90004C05892B29F410924E0510924D0508957D
:103BA0000E94F10FBC01E0914B05F0914C05428160
:103BB000538180819181480F591F461B570B0CC0C0
:103BC0002281338180819181280F391F261B370B79
:103BD0002417350708F4A9010480F581E02D3097FA
:103BE00079F7460F571F50934E0540934D050895A2
:103BF000CF93DF93EC01E0914B05F0914C058E17CC
:103C00009F0741F48C819D8190934C0580934B05D7
:103C100014C0FC01309731F0848195818C179D0789
:103C2000C1F707C01D821C821F821E82DF91CF91C7
:103C300008958C819D81958384830E94C51DF2CF58
:103C4000FC0180819181860F971F918380830E9460
:103C5000C51D089582EA91E00E94611D0895EF92CA
:103C6000FF920F931F93CF93DF937C01FC01808120
:103C70009181009729F08A35910509F06DC00BC03C
:103C800010924C0510924B058AE590E0F701918364
:103C9000808381E065C0673849F59A01E0914B0562
:103CA000F0914C0503C00480F581E02D309741F37D
:103CB0008681978182179307B1F3E0934B05F093C8
:103CC0004C050FC016968D919C91179782179307FC
:103CD00011F0FD0106C014968D919C911597958366
:103CE0008483A481B581109769F7CECF623861F6DD
:103CF000C0914B05D0914C0500E010E02AC0CE01E8
:103D00000E944D70892B01F18E819F8168E8AE0180
:103D10000E94011D892BA1F41F821E828C819D812E
:103D20000115110521F0F8019583848304C0909357
:103D30004C0580934B051D821C820E94C51DD8CF67
:103D400082EA91E00E94611D8E018C819D819C011F
:103D5000E9012097A1F698CFF7011182108283E044
:103D6000DF91CF911F910F91FF90EF900895CF9326
:103D7000DF93EC0182EA91E00E94611D8E819F81B8
:103D8000892B69F0E0914B05F0914C0506C0EC17CA
:103D9000FD07A9F00480F581E02D3097C1F78091EF
:103DA0009D0490919E049F838E8380914B059091FA
:103DB0004C059D838C83D0934C05C0934B050E948A
:103DC000C51DDF91CF9108950F931F938C010E9421
:103DD0006570C8010E94B71E1F910F9108950F933F
:103DE0001F938C010E942E70C8010E94B71E1F9164
:103DF0000F9108950F931F938C010E947070C8015A
:103E00000E94B71E1F910F910895EF92FF920F939A
:103E10001F93CF93DF937C018A01FC018081918104
:103E2000009729F08B34910509F04BC01AC08FE43C
:103E300095E00E948270EC0109C06C817D81CE0109
:103E400002960E94FA1E0990D881C02D2097A9F7EA
:103E500081E0809351058BE490E0F70191838083AA
:103E600002C0683811F081E030C08FE495E00E9414
:103E70008270EC0123C0CE01029608171907D9F40D
:103E80008FE495E0BE010E94D17000919D041091D5
:103E90009E048A859B8590939E0480939D04EC8567
:103EA000FD85309719F08E859F85099510939E04A6
:103EB00000939D04D0CF0990D881C02D2097D9F6CA
:103EC000CACFF7011182108283E0DF91CF911F9159
:103ED0000F91FF90EF900895CF93DF93EC018091C5
:103EE0005105882331F0CE0102960E94931D9C015A
:103EF00013C08FE495E00E948270FC0109C0EC17AA
:103F0000FD0719F420E030E007C00190F081E02DBA
:103F10003097A9F721E030E0C901DF91CF910895F2
:103F2000CF93DF93EC0180915105882329F0CE01D6
:103F300002960E94F81D04C01F821E8219861886F0
:103F40008FE495E0BE010E94D170DF91CF9108957A
:103F50000F931F93CF93DF93EC018091510588233A
:103F600091F000919D0410919E048BEB91E0909351
:103F70009E0480939D04CE0102960E94E41E10933D
:103F80009E0400939D048FE495E0BE010E94D170D1
:103F90008FE495E0BE010E940C71DF91CF911F91DB
:103FA0000F9108950F931F93CF93DF93EC0100912E
:103FB0009D0410919E041B870A875D874C873F876D
:103FC0002E8780915105882379F08BEB91E09093B7
:103FD0009E0480939D04CE0102960E94FA1E1093C7
:103FE0009E0400939D0402C07D836C838FE495E062
:103FF000BE010E94D1708FE495E0BE010E940C7159
:10400000DF91CF911F910F9108950F931F93CF933D
:10401000DF93EC0180915105882391F000919D047C
:1040200010919E048BEB91E090939E0480939D04ED
:10403000CE0102960E94EF1E10939E0400939D04F1
:104040008FE495E0BE010E94D1708FE495E0BE013F
:104050000E940C71DF91CF911F910F9108951092E2
:1040600051058FE495E00E947E708BEB91E060E05B
:1040700070E00E94341D0895A0915205B09153053F
:104080001097C1F0109253051092520514966D913D
:104090007C9115971296ED91FC911397CD0109959E
:1040A000E0915205F0915305309721F08081918184
:1040B0000E94DB6A08950F931F93FC0180915205C3
:1040C0009091530533832283158304837183608326
:1040D000F0935305E0935205892B19F4CB010E940C
:1040E000DB6A80E090E01F910F9108950E94C16A01
:1040F00008950E94297B08950E942E7B089580E3F5
:10410000809358050895AC0130915805832F90E0B5
:10411000841795079CF020E3231B80915405909110
:104120005505820F911D840F951F8138910530F43C
:10413000341B3093580521E030E002C020E030E02D
:10414000C901089590915805980F909358050895C6
:1041500040915405509155059C014817590718F492
:1041600020E030E012C08091560590915705820FF3
:10417000931F9093570580935605421B530B509302
:1041800055054093540521E030E0C901089590930E
:1041900055058093540508958091560590915705D3
:1041A000C0962091C5013091C601280F391FC90161
:1041B0000895809158052091C5013091C601280FBE
:1041C000311DC901089540E050E08091C5019091F2
:1041D000C601C0962091590530915A052817390714
:1041E00011F041E050E0CA01089580915905909185
:1041F0005A05089580915405909155050895909120
:10420000580580E3891B089580E390915805891B28
:104210002091540530915505280F311DC90108958D
:10422000E82FF0E0EE0FFF1FE152FF4D7183608336
:1042300081E090E00895E82FF0E0EE0FFF1FE152DB
:10424000FF4D808191810895282F30E043E0220FB7
:10425000331F4A95E1F72150304EC901089590E08F
:1042600053E0880F991F5A95E1F78150904E0E94B4
:10427000C11781E090E00895EFEDF0E21192119204
:1042800081E2EF30F807D1F78FEB90E26BE571E058
:104290000E94C11787EC90E26BE571E00E94C117A4
:1042A0008FEC90E26BE571E00E94C11787ED90E220
:1042B0006BE571E00E94C1170895109257051092A6
:1042C0005605109255051092540580E380935805C9
:1042D0008091C5019091C601C09690935A05809334
:1042E00059050E943C210895EF92FF920F931F936E
:1042F0008C017B010E945D2110935A0500935905A2
:10430000F0925505E09254051F910F91FF90EF90A8
:104310000895AFEDB0E2FC0180E301900D92815071
:10432000E1F7AFEBB0E2FB0180E201900D9281502A
:10433000E1F70895DC01EFEDF0E280E301900D92EA
:104340008150E1F7DB01EFEBF0E280E201900D92AA
:104350008150E1F708950F931F93CF93DF93EC0102
:1043600080915805482F50E0809154059091550553
:10437000C096841B950B8138910518F020E030E041
:1043800032C000E310E0F801E41BF50B2091C501F9
:104390003091C601240F351FCE01B901AF010E9433
:1043A000817B80915805081B11090C0F1D1F20915E
:1043B000590530915A058091560590915705280F5F
:1043C000391F4091540550915505C801B9010E940B
:1043D000817B2091540530915505205D3F4F8091A0
:1043E0005805281B3109C901DF91CF911F910F9109
:1043F00008950F931F934091580550E000E310E09B
:10440000F801E41BF50B2091C5013091C601240F82
:10441000351FB901AF010E94817B80915805081BAF
:104420001109C8011F910F910895E0915905F0916C
:104430005A056091C5017091C6019B01205D3F4FF7
:10444000E217F30749F04091540550915505C90111
:10445000BF010E94817B0895809156059091570578
:104460000097D9F04091540550915505405D5F4F3C
:10447000DC01D096A60FB71F20E330E007C0FB0198
:10448000E20FF31F8D9180832F5F3F4F2417350775
:10449000B4F310925705109256050895EF92FF92CB
:1044A0000F931F93F82EE92E162F072F0E945D21E0
:1044B000212F302FC9018C018138910510F000E8BF
:1044C00010E08091590590915A056F2D7E2DA8011D
:1044D0000E94817B1093550500935405C8011F91DC
:1044E0000F91FF90EF900895FC01808191810895D4
:1044F00070E023E0660F771F2A95E1F76E50704059
:10450000680F791FCB010895E62FF0E0EF5BFF4FB6
:10451000EE0FFF1FE80FF91F808191810895089524
:10452000CF93DF93EC0187EC91E0BE010E94E86F2E
:10453000892B21F0BE016E5F7F4F0CC08FEC91E0A4
:10454000BE010E94E86F892B19F460E070E002C0A0
:104550006A817B81CB01DF91CF910895CF93DF9367
:10456000EC0187EC91E0BE010E94E86F892B79F0A5
:1045700068817981CE0102960E944E22CE018E572B
:104580009F4FCE54DF4FBE010E9489211DC08FEC8A
:1045900091E0BE010E94E86F892BB1F00E945D217D
:1045A000688179818A819B810E944E228CA990E04A
:1045B0000E9483200E94D9204CA99E012C5F3F4F6E
:1045C000B90150E00E94817BDF91CF910895CF9394
:1045D000DF93EC0187EC91E0BE010E94E86F892B2C
:1045E00019F087EC91E009C08FEC91E0BE010E94C8
:1045F000E86F892B29F08FEC91E0BE010E94BA6F21
:10460000DF91CF9108950F931F93CF93DF930E9473
:10461000E320892BB1F08FEC91E00E948C6FEC01CC
:10462000009769F00E94FA20998388830E94F52000
:104630009B838A83CE0104960E94F9218CAB8E0164
:1046400015C087EC91E00E948C6FEC018C01009703
:1046500069F002960E94AB2199838883BE016E5453
:104660007F4FCE018E579F4F0E949A21C801DF9144
:10467000CF911F910F91089587EC91E00E940B70EC
:104680008FEC91E00E940B700895FC015381560F4E
:1046900050931621272F33274281420F4093152133
:1046A000A181A0931421E081E0931321842F90E055
:1046B0008217930748F48A2F8F5F809314218823F1
:1046C00019F4EF5FE0931321852F90E07070861747
:1046D000970790F4842F8F5F80931521882361F4CE
:1046E000809114218F5F80931421882329F4809175
:1046F00013218F5F8093132108959C0141505040F6
:10470000460F571FFB010EC0708160E08181DB0105
:10471000A80FB11D2A0F3B1F2A173B0710F42F5F6C
:104720003F4F3296E417F50778F3E417F50749F49D
:10473000908180E0280F391F2817390710F42F5F68
:104740003F4FC90108959C01AB0180E090E0B901A1
:104750000E947D23282F892F922F089580E090E0DA
:104760006FE171E248E250E00E947D23009719F466
:104770002FEF3FEF02C0382F292FC90108950F9363
:104780001F931091232100E09091120D091B110934
:1047900090912421090F111D9801280F311DC90185
:1047A00067E271E240E250E00E947D236091120DC9
:1047B00070E0695B7E4DA8010E947D23009719F48B
:1047C0002FEF3FEF02C0382F292FC9011F910F9102
:1047D00008958AE30E94BF23089586E00E94BF23C4
:1047E000089581E10E94BF230895CF93DF93582F4E
:1047F000A92F40914D26E0913826F091392620913D
:10480000150D3091160D2F5F3F4FBDE720303B0750
:1048100010F020E030E1922F832F442319F0E817A5
:10482000F90789F32093150D3093160DE0E0F0E0C1
:10483000442329F41092140DE8E2F6E209C047304F
:1048400011F4E8E2F6E281E08093140D309771F103
:1048500082E085A38091170D808F8091180D818F44
:104860008091190D828F80911A0D838F84EC94E0D2
:10487000978F868F91A380A381E090E0958F848F9E
:1048800017A281E086A383E084A312A280E183A320
:10489000308B218B738B628BEF01252F3A2FC9014F
:1048A000DC0180E10D9009928150E1F7CF01DF91A9
:1048B000CF9108952091582630915926281739070D
:1048C00039F41092140D109259261092582608951A
:1048D00081E08093140D08959C0180915826909159
:1048E0005926892B39F41092140D309359262093B0
:1048F0005826089581E08093140D0895BC0180919D
:1049000026269091272644960E944523E09126264C
:10491000F091272680911321848B80911421858B1F
:1049200080911521868B80911621878B0895282FE1
:10493000892F922F0895EF92FF920F931F939C015E
:1049400044275527F22EE32E00E010E0362F272FC4
:1049500040E050E0A90133272227E22AF32A042B62
:10496000152BB701C8011F910F91FF90EF9008958B
:10497000FC0140911121509112212FE136E2241BBC
:10498000350B621773070CF49B011216130664F4BF
:1049900020935A2630935B26E417F50729F0CA01C5
:1049A000BF01A9010E94817B089582E08093130DCD
:1049B000A091120D2A2F30E0F901E95BFE4D8181B3
:1049C000682F70E043E0660F771F4A95E1F7695F53
:1049D0007F4F42E0285D3F4F3CC0F901E80FF91FCF
:1049E000E15EFE4D8081882319F0813019F42EC0DC
:1049F0004F5F2FC090E0807C90708038910549F027
:104A0000803C910549F08034910501F54093130DE8
:104A100009C04093130D08C04093130D80913721B6
:104A20008F3F11F481E00895242F30E040E050E002
:104A30002A0F311D411D511D285D3F4F4F4F5F4FC4
:104A400084E062E00E94193482E0089581818E5FE3
:104A5000480F842F90E0681779070CF0BECF409381
:104A6000130D80E00895EF92FF920F931F93DF9351
:104A7000CF93CDB7DEB7C050D5400FB6F894DEBFA8
:104A80000FBECDBF0091262610912726843009F451
:104A9000ECC22BE531E23093252620932426309377
:104AA0001221209311218330C1F4D80195968C9165
:104AB0009597282F30E02F7030702330310539F46E
:104AC0005C968D919C915D97892B09F4A5C022304D
:104AD000310511F00C94912E8DC0823009F0A2C0E6
:104AE0001092102110920F2110925B2610925A26DC
:104AF00080911A0D8F5F80931A0D882399F480910D
:104B0000190D8F5F8093190D882361F48091180D22
:104B10008F5F8093180D882329F48091170D8F5F84
:104B20008093170DF80125A1273011F0253081F46D
:104B3000D80196968C9196978F5F96968C939697C0
:104B4000853011F00C94912E95961C920C94912E18
:104B5000222311F40C94912EF801848D958D892BCC
:104B600009F455C086A1815086A38F5F11F00C9483
:104B7000912E37A1383029F02150223058F43530A9
:104B800049F4D80195961C9280E880931F260E94D4
:104B9000AF2F44C7353010F080E307C083E090E0CA
:104BA00002C0880F991F3A95E2F7F80186A387A102
:104BB0008F5F87A385A190E08F70907083309105FF
:104BC00001F1843091054CF48130910509F488C4D9
:104BD000029711F00C94912E0DC08630910509F4C6
:104BE0009CC68830910509F498C6049711F00C947E
:104BF000912E93C6E091120DF0E0E95BFE4D158613
:104C000076C484E080931F260E94AF2F4CC72F707C
:104C1000233011F00C94912E88E080931F260E947F
:104C2000AF2FF0C6853021F5E0912226F0912326A2
:104C300080899189892B11F40C94912E109227264A
:104C400010922626C9010C9790932526809324263E
:104C5000909312218093112110925B2610925A2674
:104C60001092102110920F2188E080931F26FBC123
:104C700089010C53104080911F21807F803611F0F4
:104C80000C94912E9091232180E020912421AC015D
:104C9000420F511D9A0180910F219091102184178C
:104CA000950710F40C94912E285D3F4F30931021FE
:104CB00020930F21809127218F3F11F40C94912E86
:104CC000C80148960E94544A892B31F5C80148967C
:104CD0000E94BA49892B01F5809137218F3FE1F07D
:104CE0008091D21F882311F40C94912E809126215B
:104CF000823010F40C94912E87E291E20E94544A83
:104D0000892B11F00C94912E809126218150D8018D
:104D100017968C930C94992E8091D21F8823B9F109
:104D200087E391E20E94BA49892B21F480913721CF
:104D30008F3F69F587E391E20E94544A892B39F548
:104D400087E291E20E94544A892B09F5809126213D
:104D50008230E8F0DE011196EFE1F1E280E095E0CB
:104D600001900D920197E1F7809126218150F80181
:104D7000878380E090E00E944A2FAFE1B1E2FE011C
:104D8000319680E095E001900D920197E1F785E280
:104D900091E290932126809320261092120D10927A
:104DA000110DE0912026F091212680818B3209F4AB
:104DB0004BC08C3248F4863009F4CFC1813109F4FC
:104DC000B4C0882389F06BC08A3309F474C08B3374
:104DD00020F48C3209F063C0A4C78B3309F4A1C757
:104DE0008C3309F05CC006C08091110D80FD57C066
:104DF000816009C08091110D81FF04C086FD4FC004
:104E0000806401C082608093110D0E94D52481309E
:104E100009F487C7813018F0823019F68AC72091CB
:104E2000120DE22FF0E0CF01895B9E4D9093212679
:104E300080932026285FFC018181880F880F880FCE
:104E4000280F2093120DADCF8091110D82FD27C048
:104E500084608093110D9091120DE92FF0E0DF0135
:104E6000A95BBE4D13968C911397882349F0BA968F
:104E70009F01442737FD4095542F84E060E018C01F
:104E8000B0932126A0932026985FE95BFE4D818197
:104E9000880F880F880F980F9093120D82CFEF51D3
:104EA000F1429F01442737FD4095542F84E061E093
:104EB0000E9419343EC70E94E9238F5F9F4F09F07B
:104EC00030C7E091120DF0E0E15EFE4D80A50E943A
:104ED000F92FE091120DF0E0E15EFE4D80A58538DE
:104EE000C1F0863818F48038A1F410C0873829F052
:104EF000873848F0883869F403C00E94863A0DC0AC
:104F00000E9420390AC00E94F33407C00E94AC33CB
:104F100004C01092102110920F2180910F219091C6
:104F20001021892B09F4FDC604C780910F219091AF
:104F30001021C0979093102180930F218FE491E26C
:104F40009093252680932426E091120DF0E0E95BF2
:104F5000FE4D86819781892B31F00E94F1238F5F6E
:104F60009F4F09F0DEC6E091120DF0E0E95BFE4DC7
:104F700082819381892B09F4D4C68CE596E29093C3
:104F800023268093222650C0D80150962D913C9123
:104F900051972115310509F441C08091120DE82F78
:104FA000F0E0E95BFE4D8281938182179307B1F5B2
:104FB00052962D913C9153972115310529F080810E
:104FC00091818217930751F5F80180819181892B96
:104FD000E1F482819381892BC1F484819581892BAD
:104FE000A1F486819781892B81F480859185892B15
:104FF00061F482859385892B41F484859585892B7D
:1050000021F486859785892BC9F087E291E2B80162
:1050100040E150E00E94747B009781F0075E1F4FD3
:1050200010932326009322260091222610912326F6
:10503000F7E206351F0708F4A7CF73C6109227269C
:105040001092262682E080931F268FE491E29093AF
:10505000252680932426909312218093112110926B
:105060005B2610925A260E94AF2F20915A2630912B
:105070005B262115310509F454C6C901C0969093E9
:10508000102180930F21285F3F4F309323218852B6
:10509000809324214091222650912326DA015496B0
:1050A0008C918093262181E180932521E091120D3E
:1050B0006E2F70E0615E7E4DDB01989614963C93F6
:1050C000149715962C93159717961C921E92169767
:1050D000FA0180899189FB0191A780A7FA01828951
:1050E000938913969C938E931297A7E3B1E2209134
:1050F000222630912326C901FC0180E101900D9206
:105100008150E1F787E291E267E371E20E944B4749
:105110008BE591E290932526809324268091120DB1
:10512000082F10E0095B1E4D0E94F1238095909599
:10513000D80117969C938E9316978091120DE82FA5
:10514000F0E0E95BFE4D86819781892B09F0DFC590
:105150008FEF9FEF97838683DAC50E94ED238F5FE1
:105160009F4F09F0DEC58091120D082F10E0095BFA
:105170001E4DF801E280F380E114F10409F4D1C579
:10518000208131812115310509F4CBC580914D264F
:105190008823C9F08091382690913926E816F906BF
:1051A00091F480913A2690913B262817390759F4BB
:1051B00087E291E268E276E240E150E00E94747B8F
:1051C000009709F4B1C1D8011D968C918F7382307C
:1051D000D1F4F0921D0DE0921C0D1092140D41E0DF
:1051E0000EC020911C0D30911D0D8091582690917C
:1051F00059262817390709F48AC04093140D809165
:10520000140D882371F38091120DE82FF0E0DF0177
:10521000A95BBE4D1D968C911D9782FD82C584E1D0
:105220001D968C931D978CE390E0909310218093B2
:105230000F21FD0180E5848797811B968C911B9738
:1052400017968C931797938796811A968C911A9735
:1052500016968C9316979287958119968C9119972B
:1052600015968C931597918794819093140D1896A9
:105270008C91189714968C93149790871B968C9109
:105280001B978F5F1B968C931B978823C1F41A96EC
:105290008C911A978F5F1A968C931A97882379F4BA
:1052A00019968C9119978F5F19968C93199788236B
:1052B00031F418968C9118978F5F18968C93E09123
:1052C000120DF0E0DF01A15EBE4D98962D913C914C
:1052D000999730931D0D20931C0DE95BFE4D828143
:1052E0009381918380839B963C932E939A97E7E3D7
:1052F000F1E2DF01509780E10D9001928150E1F7DA
:1053000087E291E267E371E20E944B47DAC41092B0
:10531000140D00E010E021E016C080914D26882396
:1053200019F408E216E217C0873059F40115110587
:1053300031F090914E26F80186A1891710F408E209
:1053400016E22093140D8091140D882331F301157A
:10535000110509F4E6C4109327260093262683E05E
:10536000D80196968C93969794968C939497929650
:105370001C92929784E093968C93939797961C92A5
:105380009797E091120DF0E0E15EFE4D82A593A5A6
:1053900051969C938E93509780A591A553969C937C
:1053A0008E935297E7E2F1E280E101900D928150F5
:1053B000E1F781E0F80185A38091170D808F80913E
:1053C000180D818F8091190D828F80911A0D838F16
:1053D00081E090E0958F848FE091120DF0E0E95B21
:1053E000FE4D8781D80157968C935797E091120D07
:1053F000F0E0E95BFE4D868156968C935697E091DE
:10540000120DF0E0E95BFE4D858155968C93559722
:10541000E091120DF0E0E95BFE4D848154968C938F
:1054200081E090E00E947E24E091120DF0E0E95BC3
:10543000FE4D848590E0807F9070813591050CF45D
:105440004FC01092140D36C0F901E15EFE4D84ADDF
:1054500080931B0D882309F443C0813021F44F5FF2
:105460004093140D27C08230C9F485AD8430B1F467
:1054700036AD20E087AD90E0822B932B90931D0DED
:1054800080931C0DB4E0853C9B0710F084EC94E005
:10549000F801978F868F91A380A322C08091140D6D
:1054A000E82FF0E0E45AFE4DE081EE23C9F0E80F6A
:1054B000E093140D4091140D242F30E0E091120D73
:1054C000F0E0E95BFE4D848582958F7090E0059752
:1054D000880F991F880F991F281739070CF4B4CF2C
:1054E000E091120DF0E0E95BFE4D80E18587E091EF
:1054F000120DF0E0DF01A95BBE4D1D968C911D974A
:1055000082601D968C931D97FD0182E0848B84E060
:10551000858B868B84EC878B80E490E090931021C0
:1055200080930F2180E66FC388E296E2909327264E
:105530008093262610921F268091120DE82FF0E00E
:10554000DF01A95BBE4D1D968C911D9782FF04C0A3
:1055500010924D2680E2E1C21C968C9182958F704C
:10556000880F880F8093140D20910F213091102106
:1055700028523040281B31093093102120930F21ED
:1055800080914D2690E08F7090708230910539F4B3
:10559000E95BFE4D85858F73823149F433C00197F5
:1055A00031F4E95BFE4D85858F73823059F1232BF1
:1055B00059F4E091120DF0E0E95BFE4D858590E035
:1055C00083709070892BF1F08091120DE82FF0E03C
:1055D000E95BFE4D948180913C26981779F4958182
:1055E00080913D26981751F4968180913E26981718
:1055F00029F4978180913F26981721F0858581FFB6
:10560000EDC2B9C0E091120DF0E0E95BFE4D858579
:1056100084FF60C060914426709145266115710534
:1056200009F458C080E496E20E9445238091120D4F
:10563000E82FF0E0E95BFE4D40858091132148178B
:1056400009F048C0318580911421381709F042C013
:105650002285809115212817E9F5938580911621DF
:105660009817C1F540934026309341262093422657
:105670009093432680914F26882309F520914A264E
:1056800090914C2680914E26981B822F8695869568
:105690008695981B392F320F30934A2680914B26DE
:1056A000282F26952695821B97FD9195890F80932B
:1056B0004B26369536953695830F80934C2681E0A0
:1056C00080931F2680914C2680934E26109245266B
:1056D0001092442680914D26282F30E0C9018F700A
:1056E00090708430910509F41DC28530910564F4F1
:1056F0008230910509F442C0833091050CF0D6C088
:10570000019709F00EC310C08630910509F45CC200
:10571000863091050CF432C28730910509F45EC2DF
:10572000089709F0FEC2F2C180911F2680FF19C0C0
:1057300083E080934D2680E480931F2610924526B7
:105740001092442620910F2130911021211531050E
:1057500009F450C182E480931F26C9010E947E246F
:1057600049C1E091120DF0E0E95BFE4D85858F7334
:10577000823009F0D6C208E216E2B2CE80911F262E
:1057800080FF89C08091120DE82FF0E0E95BFE4DAB
:1057900085858F73823109F07EC0848590E0807F9B
:1057A0009070813591050CF452C01092140D39C0DF
:1057B000F901E15EFE4D84AD80931B0D882309F451
:1057C00046C0813021F44F5F4093140D2AC08230CF
:1057D000E1F485AD8430C9F436AD20E087AD90E0CA
:1057E000822B932B90931D0D80931C0DF4E0853C30
:1057F0009F0710F084EC94E0909347268093462610
:10580000909349268093482622C08091140DE82F5A
:10581000F0E0E45AFE4DE081EE23C9F0E80FE0939A
:10582000140D4091140D242F30E0E091120DF0E0A2
:10583000E95BFE4D848582958F7090E00597880F17
:10584000991F880F991F281739070CF4B1CF83E0EF
:1058500080934D26E091120DF0E0E95BFE4D8481CE
:1058600080933C26858180933D26868180933E26C9
:10587000878180933F2681E090E00E947E2482E42D
:1058800080931F26109245261092442610921021D4
:1058900010920F21AFC080E280931F260E94AF2F8D
:1058A000E0912626F091272615A2ADCC8091120D0D
:1058B000E82FF0E0E95BFE4D858580FF36C024FDD2
:1058C00034C08091442690914526892B09F029C245
:1058D00080910F219091102101960E947E242091A9
:1058E0001F26822F806180931F2680910F21909127
:1058F0001021892B19F0226120931F260E94AF2FBF
:1059000081E090E0909345268093442688E0809340
:105910004D2610924F2608E216E2E091120DF0E0BB
:10592000E95BFE4D81E1858762C185FF25C0328933
:1059300020E0838990E0282B392B809124269091B8
:105940002526820F931F9093252680932426E0918D
:10595000120DF0E0E95BFE4D328920E0838990E092
:10596000282B392B80910F2190911021821B930BB2
:105970009093102180930F2120910F2130911021BD
:105980002115310561F080914D2684FD08C080917C
:105990001F26826080931F26C9010E947E24E09109
:1059A000120DF0E0E95BFE4D968580E02785820FC1
:1059B000911D90931D0D80931C0D209148263091D0
:1059C00049262817390710F0892B21F430931D0D33
:1059D00020931C0D80911C0D90911D0D90934726D6
:1059E0008093462680911F2690E083709070892BCB
:1059F00009F497C110925B2610925A260E94AF2F8D
:105A000008E216E280911F26282F85FF0EC0109213
:105A10005B2610925A26D80195961C92E091120DA1
:105A2000F0E0E95BFE4D84E17ECF84FF0DC0109273
:105A30005B2610925A2681E090E0F801958F848FC2
:105A400084E085A317A269CF80915A2690915B26A6
:105A5000892B39F120FF05C0D8015D961C921E925A
:105A60005C97F801848D958D0097B9F4268D378D5C
:105A700080915A2690915B262817390720F430939D
:105A80005B2620935A2680915A2690915B26D80156
:105A90005D969C938E935C9704C090935B26809355
:105AA0005A26F80117A2809111219091122190930A
:105AB00025268093242680915A2690915B26892B57
:105AC00099F0D8015C968D919C915D97009761F05B
:105AD000CC969093102180930F21E091120DF0E06D
